:100000000C9463000C948B000C948B000C948B006C
:100010000C948B000C948B000C948B000C948B0034
:100020000C948B000C948B000C948B000C940703A5
:100030000C948B000C948B000C948B000C948B0014
:100040000C94C5030C948B000C9457050C94A505D7
:100050000C948B000C948B000C948B000C948B00F4
:100060000C948B000C948B000000000024002700EF
:100070002A0000000000250028002B0000000000DE
:1000800023002600290004040404040404040202DA
:100090000202020203030303030301020408102007
:1000A0004080010204081020010204081020000012
:1000B0000007000201000003040600000000000029
:1000C00000008D00110711241FBECFEFD8E0DEBF66
:1000D000CDBF11E0A0E0B1E0EEEFF2E102C005908B
:1000E0000D92A231B107D9F711E0A2E1B1E001C050
:1000F0001D92A13FB107E1F710E0C6ECD0E004C0CB
:100100002297FE010E947909C23CD107C9F70E94DB
:1001100067070C947D090C94000082E191E00E9435
:100120002B0285E191E00E942B0208958FEC91E073
:1001300040E855E260E070E00E94E00582E191E075
:100140006AE070E00E94000385E191E069E070E000
:100150000E94000388E061E00E94C3048CE061E03B
:100160000E94C3048BE061E00E94C30481E160E06F
:100170000E94C30482E160E00E94C30483E160E066
:100180000E94C30408954F925F926F927F928F9264
:100190009F92AF92BF92CF92DF92EF92FF920F9316
:1001A0001F93CF93DF93482E562EC0E0D0E0852DCD
:1001B00060E00E94020561E070E080E090E00E9453
:1001C0000D04842D0E94A1045C01852D61E00E9434
:1001D000020561E070E080E090E00E940D04842D53
:1001E0000E94A1047C01CC24B7FCC094DC2CC60185
:1001F000B5010E940B085B016C010027F7FC00951C
:10020000102FC801B7010E940B089B01AC01C60169
:10021000B5010E94A0079B01AC01C401B3010E947B
:10022000A1073B014C012196C430D10509F0BFCF95
:1002300020E030E040E85EE30E94BF08DF91CF910C
:100240001F910F91FF90EF90DF90CF90BF90AF90F4
:100250009F908F907F906F905F904F900895AF9296
:10026000BF92CF92DF92EF92FF920F931F93CF93A3
:10027000DF937A010E94C3005B016C01C0E0D0E013
:100280000027F7FC0095102FC801B7010E940B084A
:100290009B01AC01C601B5010E94BB08181614F4FD
:1002A000C1E0D0E0CE01DF91CF911F910F91FF907F
:1002B000EF90DF90CF90BF90AF90089564527A4F47
:1002C0000E944502089581E190E068E070E04CE210
:1002D00051E00E942F01892BF1F482E191E066E464
:1002E00070E00E945E0185E191E06AEB7FEF0E9481
:1002F0005E016CE474E080E090E00E940D0482E115
:1003000091E060E070E00E945E0185E191E060E0D4
:1003100070E00E945E010895CF92DF92EF92FF920B
:100320000F931F93082F86E408028001112492E1A5
:10033000C92E91E0D92EC601B8010E945E0185E167
:10034000E82E81E0F82EC701B8010E945E016CEB37
:1003500072E080E090E00E940D04C60160E070E071
:100360000E945E01C70160E070E00E945E011F9183
:100370000F91FF90EF90DF90CF90089581E00E9461
:100380008C0181E00E948C0108956F927F928F9280
:100390009F92AF92BF92CF92DF92EF92FF920F9314
:1003A0001F9383E190E06BE070E00E94C3007B014B
:1003B0008C0182E190E06CE070E00E94C3003B01A0
:1003C0004C0181E190E068E070E00E94C3005B01B5
:1003D0006C01C801B70120E030E048EC52E40E9413
:1003E0000508882314F481E022C0C601B50120E08D
:1003F00030E048E453E40E94050888236CF482E16D
:1004000091E064E670E00E945E0185E191E06CE9B4
:100410007FEF0E945E0112C0C401B30120E030E012
:1004200048EC52E40E940508882324F48FEF0E94D0
:100430008C0102C00E94BE010E9463011F910F91B6
:10044000FF90EF90DF90CF90BF90AF909F908F90F4
:100450007F906F900895FC01809118018C3090F48A
:1004600080838F5F80931801815090E0FC01EE0F34
:10047000FF1FE80FF91FE75EFE4F88EB9BE09283BA
:10048000818308958FEF80830895FC0120812C30B3
:10049000B8F58181992787FD909548E850E0481B81
:1004A000590B440F551F440F551F6417750784F0EF
:1004B0008281992787FD909548E552E0481B590BAA
:1004C000440F551F440F551F641775070CF4AB01FB
:1004D00042505040CA01AA2797FDA095BA2F880F15
:1004E000991FAA1FBB1F4FB7F89430E0F901EE0F18
:1004F000FF1FE20FF31FE75EFE4F928381834FBF22
:100500000895CF92DF92EF92FF921F93CF93DF93E4
:10051000EC01162F7A01690188818C3008F064C0E3
:10052000862F61E00E94C304888190E0FC01EE0FF9
:10053000FF1FE80FF91FE75EFE4F1F738081807C6D
:10054000812B808380E292E08E199F0964E070E045
:100550000E942E09698380E699E08C199D0964E068
:1005600070E00E942E096A83A8818A2F6CE00E94A5
:100570002209682F70E0AB01440F551F460F571F2B
:10058000440F551F440F551F20E030E0C901840F70
:10059000951FFC01EE0FFF1FE80FF91FE75EFE4FEE
:1005A000808186FD15C02F5F3F4F2C30310571F7DC
:1005B00024C01092800082E0809381001092850018
:1005C00010928400B19A80916F00826080936F00D6
:1005D0008A2F90E0FC01EE0FFF1FE80FF91FE75E86
:1005E000FE4F8081806480838881DF91CF911F914D
:1005F000FF90EF90DF90CF900895672BD1F2E8CF76
:1006000040E252E020E639E00E94810208951F9204
:100610000F920FB60F9211242F933F934F935F9336
:100620006F937F938F939F93AF93BF93EF93FF93BA
:1006300080913D0187FF05C01092850010928400D3
:100640002BC020913D01332727FD30958091180163
:1006500090E02817390704F580913D01992787FD1F
:100660009095FC01EE0FFF1FE80FF91FE75EFE4FAC
:10067000808186FF11C080913D01992787FD90956B
:10068000FC01EE0FFF1FE80FF91FE75EFE4F8081B0
:100690008F7360E00E94020580913D018F5F80931F
:1006A0003D0120913D01332727FD309580911801B0
:1006B00090E0281739070CF04EC080913D018C3036
:1006C0000CF049C0209184003091850080913D015B
:1006D000992787FD9095FC01EE0FFF1FE80FF91F8A
:1006E000E75EFE4F81819281280F391F3093890088
:1006F0002093880080913D01992787FD9095FC010A
:10070000EE0FFF1FE80FF91FE75EFE4F808186FFA7
:100710002BC080913D01992787FD9095FC01EE0F3C
:10072000FF1FE80FF91FE75EFE4F80818F7361E0C6
:100730000E94020519C080E49CE905C080918400F4
:1007400090918500049690938900809388008FEFA4
:1007500080933D0109C080918400909185000496AA
:1007600080549C4940F3EACFFF91EF91BF91AF9144
:100770009F918F917F916F915F914F913F912F91B9
:100780000F900FBE0F901F9018951F920F920FB6EB
:100790000F9211242F933F938F939F93AF93BF9307
:1007A0008091420190914301A0914401B091450193
:1007B000309146010196A11DB11D232F2D5F2D37CC
:1007C00020F02D570196A11DB11D20934601809365
:1007D000420190934301A0934401B093450180915D
:1007E0003E0190913F01A0914001B09141010196DD
:1007F000A11DB11D80933E0190933F01A093400144
:10080000B0934101BF91AF919F918F913F912F91F3
:100810000F900FBE0F901F9018959B01AC017FB7F2
:10082000F89480913E0190913F01A0914001B091D8
:10083000410166B5A89B05C06F3F19F00196A11D47
:10084000B11D7FBFBA2FA92F982F8827860F911D22
:10085000A11DB11D62E0880F991FAA1FBB1F6A95D9
:10086000D1F7BC012DC0FFB7F89480913E01909163
:100870003F01A0914001B0914101E6B5A89B05C0A0
:10088000EF3F19F00196A11DB11DFFBFBA2FA92F8F
:10089000982F88278E0F911DA11DB11DE2E0880FB2
:1008A000991FAA1FBB1FEA95D1F7861B970B885E7D
:1008B0009340C8F2215030404040504068517C4F36
:1008C000211531054105510571F60895789484B5D7
:1008D000826084BD84B5816084BD85B5826085BD3C
:1008E00085B5816085BDEEE6F0E080818160808322
:1008F000E1E8F0E010828081826080838081816005
:100900008083E0E8F0E0808181608083E1EBF0E0CB
:10091000808184608083E0EBF0E08081816080836F
:10092000EAE7F0E080818460808380818260808358
:100930008081816080838081806880831092C10083
:100940000895982F8E3008F09E5097708091000186
:100950008295880F880F807C892B80937C00809102
:100960007A00806480937A0080917A0086FDFCCFC3
:100970002091780040917900942F80E030E0282B7E
:10098000392BC9010895CF93DF93482F50E0CA0156
:1009900086569F4FFC0134914A575F4FFA0184916C
:1009A000882369F190E0880F991FFC01E859FF4FF7
:1009B000A591B491FC01EE58FF4FC591D4916623E7
:1009C00051F42FB7F8948C91932F909589238C93A1
:1009D000888189230BC0623061F42FB7F8948C9121
:1009E000932F909589238C938881832B88832FBFA5
:1009F00006C09FB7F8948C91832B8C939FBFDF9197
:100A0000CF910895482F50E0CA0182559F4FFC01B5
:100A10002491CA0186569F4FFC0194914A575F4F1B
:100A2000FA013491332309F440C0222351F12330D9
:100A300071F0243028F42130A1F0223011F514C0D7
:100A40002630B1F02730C1F02430D9F404C08091B1
:100A500080008F7703C0809180008F7D809380001D
:100A600010C084B58F7702C084B58F7D84BD09C066
:100A70008091B0008F7703C08091B0008F7D80930C
:100A8000B000E32FF0E0EE0FFF1FEE58FF4FA591EF
:100A9000B4912FB7F894662321F48C919095892313
:100AA00002C08C91892B8C932FBF089508951F92BB
:100AB0000F920FB60F9211242F933F934F938F9362
:100AC0009F93EF93FF938091C00082FD1DC04091E2
:100AD000C60020918701309188012F5F3F4F2F730F
:100AE00030708091890190918A012817390771F03F
:100AF000E0918701F0918801E95BFE4F40833093DC
:100B000088012093870102C08091C600FF91EF9178
:100B10009F918F914F913F912F910F900FBE0F900A
:100B20001F901895E091DB01F091DC01E05CFF4F34
:100B30008191919120813181821B930B8F739070F1
:100B4000892B11F00E94560508951F920F920FB63F
:100B50000F9211242F933F938F939F93EF93FF93C3
:100B60002091CB013091CC018091CD019091CE01AB
:100B70002817390731F48091C1008F7D8093C1001F
:100B800014C0E091CD01F091CE01E557FE4F2081D8
:100B90008091CD019091CE0101968F7390709093CA
:100BA000CE018093CD012093C600FF91EF919F91DC
:100BB0008F913F912F910F900FBE0F901F9018951E
:100BC000AF92BF92DF92EF92FF920F931F93CF935A
:100BD000DF93EC017A018B01DD24403081EE580770
:100BE00080E0680780E0780711F0DD24D39491E07D
:100BF000A92EB12CEC89FD89DD2069F0C50108A082
:100C000002C0880F991F0A94E2F7808360E079E0C0
:100C10008DE390E005C0108260E874E88EE190E01A
:100C2000A80197010E9441092150304040405040A6
:100C3000569547953795279580E12030380720F065
:100C4000DD2011F0DD24D6CFE889F9893083EA89E7
:100C5000FB89208319A2EE89FF89408121E030E0E1
:100C6000C9010C8C02C0880F991F0A94E2F7482B27
:100C70004083EE89FF894081C9010D8C02C0880F35
:100C8000991F0A94E2F7482B4083EE89FF8940813F
:100C9000C9010E8C02C0880F991F0A94E2F7482BF5
:100CA0004083EE89FF8980810F8C02C0220F331FA1
:100CB0000A94E2F7209528232083DF91CF911F919A
:100CC0000F91FF90EF90DF90BF90AF900895DC01FF
:100CD0001C96ED91FC911D97E05CFF4F21913191A5
:100CE00080819181281B390B2F733070C9010895C1
:100CF000DC011C96ED91FC911D97E05CFF4F20817B
:100D00003181E054F040DF01AE5BBF4F8D919C918B
:100D100011972817390719F42FEF3FEF07C08D916E
:100D20009C91E80FF91F8081282F30E0C9010895B8
:100D3000DC011C96ED91FC911D97E05CFF4F20813A
:100D40003181E054F040DF01AE5BBF4F8D919C914B
:100D500011972817390719F42FEF3FEF10C08D9125
:100D60009C911197E80FF91F20818D919C9111970B
:100D700001968F73907011969C938E9330E0C90109
:100D80000895DC0191968C919197882339F05496BF
:100D9000ED91FC915597808186FFF9CF91961C9239
:100DA0000895CF93DF93EC01EE85FF85E05CFF4F64
:100DB00020813181E054F0402F5F3F4F2F7330701E
:100DC000DF01AE5BBF4F8D919C91119728173907BA
:100DD000D1F3E05CFF4F80819181E054F040E80F57
:100DE000F91F6083EE85FF85E05CFF4F3183208330
:100DF000EE89FF89208181E090E00F8C02C0880F8E
:100E0000991F0A94E2F7282B208381E089A3EC89BB
:100E1000FD8980818064808381E090E0DF91CF91C3
:100E200008951092D2011092D10188EE93E0A0E0D3
:100E3000B0E08093D3019093D401A093D501B093F7
:100E4000D60185E091E09093D0018093CF0187E4B3
:100E500091E09093DC018093DB018BE891E090932B
:100E6000DE018093DD0185EC90E09093E0018093BA
:100E7000DF0184EC90E09093E2018093E10180EC4B
:100E800090E09093E4018093E30181EC90E09093F3
:100E9000E6018093E50182EC90E09093E801809375
:100EA000E70186EC90E09093EA018093E90184E009
:100EB0008093EB0183E08093EC0187E08093ED0168
:100EC00085E08093EE0181E08093EF010895CF9358
:100ED000DF930E9466040E949600C2E9D5E00E945A
:100EE000C5012097E1F30E949205F9CFCF92DF92DE
:100EF000EF92FF920F931F93CF93DF937C016B01CF
:100F00008A01C0E0D0E00FC0D6016D916D01D7011C
:100F1000ED91FC910190F081E02DC7010995C80F7A
:100F2000D91F015010400115110571F7CE01DF9155
:100F3000CF911F910F91FF90EF90DF90CF90089588
:100F40005058BB27AA270ED0DCC0CDD030F0D2D06D
:100F500020F031F49F3F11F41EF4C2C00EF4E0956E
:100F6000E7FBB8C0E92FDED080F3BA17620773073A
:100F70008407950718F071F49EF5F6C00EF4E0951D
:100F80000B2EBA2FA02D0B01B90190010C01CA0143
:100F9000A0011124FF27591B99F0593F50F4503EEE
:100FA00068F11A16F040A22F232F342F4427585FE0
:100FB000F3CF469537952795A795F0405395C9F7F8
:100FC0007EF41F16BA0B620B730B840BBAF09150B0
:100FD000A1F0FF0FBB1F661F771F881FC2F70EC04F
:100FE000BA0F621F731F841F48F487957795679522
:100FF000B795F7959E3F08F0B3CF9395880F08F00B
:101000009927EE0F97958795089540D008F481E0D1
:101010000895E89409C097FB3EF4909580957095EB
:1010200061957F4F8F4F9F4F9923A9F0F92F96E934
:10103000BB279395F695879577956795B795F111A9
:10104000F8CFFAF4BB0F11F460FF1BC06F5F7F4F46
:101050008F4F9F4F16C0882311F096E911C0772358
:1010600021F09EE8872F762F05C0662371F096E861
:10107000862F70E060E02AF09A95660F771F881F30
:10108000DAF7880F9695879597F90895990F0008D4
:10109000550FAA0BE0E8FEEF16161706E807F9074A
:1010A000C0F012161306E407F50798F0621B730BE5
:1010B000840B950B39F40A2661F0232B242B252B66
:1010C00021F408950A2609F4A140A6958FEF811D09
:1010D000811D089597F99F6780E870E060E00895AA
:1010E0009FEF80EC089500240A9416161706180640
:1010F0000906089500240A9412161306140605061C
:101100000895092E0394000C11F4882352F0BB0FAC
:1011100040F4BF2B11F460FF04C06F5F7F4F8F4F0F
:101120009F4F089557FD9058440F551F59F05F3F4A
:1011300071F04795880F97FB991F61F09F3F79F0F9
:1011400087950895121613061406551FF2CF46957B
:10115000F1DF08C0161617061806991FF1CF8695FD
:101160007105610508940895E894BB2766277727E1
:10117000CB0197F908958ADF08F48FEF08950BD01B
:10118000C0CFB1DF28F0B6DF18F0952309F0A2CF69
:10119000A7CF1124EACFC6DFA0F3959FD1F3950F17
:1011A00050E0551F629FF001729FBB27F00DB11DEB
:1011B000639FAA27F00DB11DAA1F649F6627B00D7B
:1011C000A11D661F829F2227B00DA11D621F739F64
:1011D000B00DA11D621F839FA00D611D221F749F72
:1011E0003327A00D611D231F849F600D211D822FB9
:1011F000762F6A2F11249F5750408AF0E1F0882300
:101200004AF0EE0FFF1FBB1F661F771F881F91500C
:101210005040A9F79E3F510570F05CCFA6CF5F3FCD
:10122000ECF3983EDCF3869577956795B795F7953F
:10123000E7959F5FC1F7FE2B880F911D96958795C7
:1012400097F90895991B79E004C0991F961708F043
:10125000961B881F7A95C9F78095089597FB092EEC
:1012600007260AD077FD04D02ED006D000201AF42D
:10127000709561957F4F0895F6F7909581959F4FF2
:101280000895A1E21A2EAA1BBB1BFD010DC0AA1FC7
:10129000BB1FEE1FFF1FA217B307E407F50720F0DF
:1012A000A21BB30BE40BF50B661F771F881F991F5A
:1012B0001A9469F760957095809590959B01AC01A3
:1012C000BD01CF010895AA1BBB1B51E107C0AA1F96
:1012D000BB1FA617B70710F0A61BB70B881F991FD7
:1012E0005A95A9F780959095BC01CD010895EE0F10
:0E12F000FF1F0590F491E02D0994F894FFCFB4
:1012FE000100000000D1067607670698067806C141
:02130E000600D7
:00000001FF
